:1080000058E60020518F000059E90000258F00003C
:10801000258F0000258F0000258F0000258F000090
:108020000000000000000000000000006D8B000058
:10803000258F000000000000FD8A0000258F000051
:10804000FD8B0000FD8B0000FD8B0000FD8B000010
:10805000FD8B0000FD8B0000FD8B0000FD8B000000
:10806000FD8B0000FD8B0000FD8B0000FD8B0000F0
:10807000FD8B0000FD8B0000FD8B0000FD8B0000E0
:10808000FD8B0000FD8B0000FD8B0000FD8B0000D0
:10809000FD8B0000FD8B0000FD8B0000FD8B0000C0
:1080A000FD8B0000FD8B0000FD8B0000FD8B0000B0
:1080B000FD8B0000FD8B0000FD8B0000FD8B0000A0
:1080C000FD8B0000FD8B0000FD8B0000FD8B000090
:1080D000FD8B0000FD8B0000FD8B0000FD8B000080
:1080E000FD8B0000FD8B0000FD8B0000FD8B000070
:1080F000FD8B0000FD8B0000FD8B0000FD8B000060
:10810000FD8B0000FD8B0000FD8B0000FD8B00004F
:10811000FD8B0000FD8B0000FD8B0000FD8B00003F
:10812000FD8B0000FD8B0000FD8B0000FD8B00002F
:10813000FD8B0000FD8B0000FD8B0000FD8B00001F
:04814000FD8B0000B3
:1081440053B94AB9002908BF00281CBF4FF0FF31BA
:108154004FF0FF3000F00CB8ADF1080C6DE904CE1F
:1081640000F008F8DDF804E0DDE9022304B070470C
:10817400704700BF2DE9F04786468C460846089EA6
:10818400154674461946002B40F0C1808542B2FA68
:1081940082F245D94AB1C2F1200300FA02FC9540AB
:1081A40094402EFA03F343EA0C0C4FEA154EA8B29E
:1081B400230CBCFBFEF80EFB18CC08FB00F943EAC9
:1081C4000C43994528D9EB1808F1FF3704D2994597
:1081D40002D9A8F102072B44A3EB0903A4B2B3FB11
:1081E400FEFC0EFB1C330CFB00F044EA0344A042EB
:1081F40014D92C190CF1FF3304D2A04202D9ACF1EA
:1082040002032C44241A43EA07401EB1D44000233D
:1082140034607360BDE8F0874746DDE76346F1E705
:1082240092BB431B01214FEA154EAFB2200CB3FBA6
:10823400FEFC0EFB1C330CFB07F840EA0343984595
:1082440061D9EB180CF1FF3004D2984502D9ACF196
:1082540002002B44A3EB0803A4B2B3FBFEFC0EFB09
:108264001C330CFB07F744EA0344A7424DD92C19ED
:108274000CF1FF3304D2A74202D9ACF102032C441F
:10828400E41B43EA0040C0E7C2F120039540944058
:1082940020FA03F12EFA03F34FEA154E9040AFB2E1
:1082A4000343B1FBFEFC0EFB1C10190C0CFB07F87E
:1082B40041EA0041884522D969180CF1FF3004D203
:1082C400884502D9ACF102002944A1EB08019BB214
:1082D400B1FBFEFC0EFB1C110CFB07F743EA014348
:1082E4009F420ED9EB180CF1FF3104D29F4202D900
:1082F400ACF102012B44DB1B41EA004193E76046E9
:10830400E3E76146F7E76046A4E76346B8E78342DC
:1083140006D916B9002108467CE7C6E900E0F9E76A
:10832400B3FA83F78FB9834201D3724508D8BEEB01
:10833400020460EB030301209C461EB9002169E797
:108344003846FAE7C6E9004CF8E7C7F1200CBB4011
:108354000EFA07F522FA0CF42EFA0CF1BA401C437B
:1083640020FA0CF3B8404FEA144901431FFA84FE83
:10837400B3FBF9F809FB18300B0C08FB0EFA43EABF
:1083840000439A4540D9E31808F1FF3004D29A45D6
:1083940002D9A8F102002344A3EB0A0389B2B3FB78
:1083A400F9F809FB183308FB0EFE41EA03418E4538
:1083B4002CD9611808F1FF3304D28E4502D9A8F1F3
:1083C4000203214443EA0040A1EB0E01A0FB029802
:1083D4004145CE46434602D306D14D4504D2013829
:1083E400B9EB020E68EB0403002EA7D0B5EB0E0226
:1083F40061EB030101FA0CFC22FA07F3F9404CEAA1
:108404000303C6E9003199E74046C5E74346D9E787
:10841400034611F8012B03F8012B002AF9D1704708
:10842400034613F8012B002AFBD1181A01387047B0
:1084340008B5073007F013FBBDE80840A0F18C0134
:10844400014805F0E9BE00BF0C03010038B502463F
:1084540004464FF480710A4803F056FB054630B1D8
:10846400204605F0D9FE2946064805F0D5FE2046EB
:1084740005F0D2FEBDE838400149034805F0CCBE02
:10848400F4CE0020220301007306010030B589B048
:10849400164806AD05F0C0FE15491648009504AB14
:1084A40003AA03F0C3FB041E05DA2146124805F0B3
:1084B400B3FE09B030BDFCD00399104A104B1148EB
:1084C40000290CBF1146194605F0A6FE012CF0D078
:1084D40008210D4804AA05F09FFE022CE9D02A4683
:1084E40008210A4805F098FEE3E700BF4B030100AA
:1084F40060030100810301008B03010042030100BA
:108504003A030100AD030100B8030100D5030100E3
:1085140010B5083007F0A3FA164CC3B2052B014678
:10852400206013D8013B042B1FD8DFE803F01C1A8A
:10853400181603001049114805F06EFE2368012B3C
:1085440017D1BDE810400E4804F00ABB5A2B0ED0D8
:10855400BDE810400B4805F05FBE0B49EBE70B4943
:10856400E9E70B49E7E70B49E5E70B49E3E70B4983
:10857400E1E710BDB0C800200E040100580401005A
:10858400B0C600202F040100160401001E040100DF
:1085940025040100F1030100F603010001040100B8
:1085A40038B5424805F038FE01F064FE014620B1BA
:1085B4003F4805F031FE002038BD3E48FFF746FF36
:1085C4003D48FFF743FF3D48FFF740FF3C48FFF7B6
:1085D4003DFF3948FFF73AFF3848FFF737FF364881
:1085E400FFF734FF3748FFF731FF3748FFF72EFF17
:1085F4003648FFF72BFF364805F00EFE304803F0EF
:108604003DFA054618B1334805F006FED3E7324C6F
:10861400324805F001FE237A314865F300032372E2
:1086240005F0FAFD00234FF470222E4804F0BCFA42
:108634002D4B1B68012B15D12C4805F0EDFD2C4862
:1086440005F0EAFD237A43F001032372FFF71EFFCE
:10865400284805F0E1FD0121274803F00FFA40B155
:108664002648D1E70B3002D1254805F0D5FD254831
:10867400E3E7FFF70BFF4FF48071234A234803F02D
:1086840043FA014608B1224893E72049214805F0FE
:10869400C3FD214805F0C0FD064803F0EFF90028AA
:1086A400B1D101F003FE1D48AEE700BF790401001B
:1086B40094040100C4040100CE040100D8040100A4
:1086C400E3040100ED040100F504010000050100CC
:1086D400080501001F05010054C600202F050100F4
:1086E40063050100B0C60020B0C800207805010071
:1086F400CC050100FF0501000D060100190601006B
:1087040092050100B00501003D060100F4CE0020F1
:108714004706010065060100780601008D06010088
:10872400014B1B68184700BF80C50020014B18602F
:10873400704700BF80C5002030B585B004460D46A3
:1087440010220021684607F038FA02238DF802301F
:10875400044B2A4621466846019305F0DDF805B02E
:1087640030BD00BF2587000080B505460E4617467C
:10877400984604F051FE034607F072FA0446DFF807
:108784001890424649F8003039463046A84754F814
:10879400090000F055FC00BF080000002DE9F04777
:1087A400058B04462807904611D4022905F00705D5
:1087B40040F0CD80204605F0E9FF78B10138218BE7
:1087C400042811D8DFE800F0C3106D859500012955
:1087D4000CBF45F0100545F02005258388F311886A
:1087E400BFF36F8FBDE8F08701F0070AAA4500F0D8
:1087F400A6800027B9463E46A368002B00F0BD8042
:1088040041F00801218388F31188BFF36F8FA168B9
:10881400002900F0BB800D68002900F0B7803346C2
:1088240052462046D1F80480C047002D76D02B68EC
:1088340029461D46F0E701F007035A1F012A1BD8F9
:10884400002221F00701062B276889B2C4E900221F
:1088540009D13B4603E0628B013262831B68002B23
:10886400F9D141F002012046218305F08FFF002851
:108874007BD041F0200177E0042B0AD121F00701DD
:1088840089B22046218305F081FF10B141F0200117
:108894002183218B01F0070AAA4550D00027B9464D
:1088A400AAE7236921F0070141F00601062DD3F858
:1088B400009021832DD1B9F1000F40D041F008017F
:1088C400218388F31188BFF36F8F20463949C84745
:1088D40029E021F00701236941F0040189B2042D44
:1088E400D3F804902183E6D000274FF0040A3E46D3
:1088F40082E721F00701236941F0050189B2052DC2
:10890400D3F808902183D6D000274FF0050A3E46BD
:1089140072E700274FF0060A3E466DE72B4687E7CD
:10892400B9F1000FD1D14FF02003EFF3118883F395
:108934001288BFF36F8F238B23F008032383258BC7
:10894400EA062ED525F01003238305F00705666992
:10895400218B002EBFF66FAF00232768C4E90033D4
:1089640021F0070141F001012183218B4FF000091F
:1089740001F0070AAA457FF43FAF002F9BD041F0D6
:108984000801218388F31188BFF36F8F002FC7D0AC
:108994003D68394633465246204605F023FF2F46AC
:1089A400F4E7AB067FF51AAF25F02003238305F027
:1089B4000705FFE615E800000122024B0020C3F87A
:1089C400402570470090034020B1034B800143F0E1
:1089D40001031847704700BFE0FF000006F0B4B978
:1089E400014910220A60704710ED00E072B6404061
:1089F40080F31188BFF36F8FBFF34F8F30BF62B620
:108A0400BFF36F8F704700BF72B6494081F311887E
:108A1400BFF34F8F20BF80F3118862B6704700BF49
:108A240040B2002807DB01234109034A00F01F007C
:108A3400834042F82130704700E100E0054B4209D1
:108A440053F82220012300F01F0003FA00F0104025
:108A5400704700BF00E100E040B2002801F10101CD
:108A6400ACBF00F16040064B4FEA4111C9B2ABBF45
:108A740000F5614000F00F0080F8001319547047AE
:108A840014ED00E030BFFFF7FDBF00BF0B4A08B58F
:108A94000B4B22F07F029A60BFF34F8FBFF36F8FAF
:108AA400D3F8882022F47002C3F8882003F0DCFD98
:108AB40004F02AFD00F03EFA03F020FE00800000DE
:108AC40000ED00E0094A0A49936809685867996704
:108AD40008494B6843F080534B60002383F31188AB
:108AE400BFF36F8F9368986F704700BFB8CE0020B4
:108AF400F002010000ED00E018498A6882F87DE088
:108B04004FF030001044EFF3098C80E8F01F202070
:108B140080F31288BFF36F8F114F4FF000664A69DC
:108B24008A603E604FF07004141920680D4C206078
:108B340092F97DE0506F0023536780F3118802F1AE
:108B4400300090E8F01F8CF3098802F1000004B5AE
:108B540005F007FFBDE8044070470000B8CE0020D0
:108B640004ED00E0B4C800201EF0040F0CBFEFF3C6
:108B74000880EFF30980816911F8021C0229FFD0F3
:108B840001B505F0DFFE01BD42F8203C009B0C4915
:108B940042F81C3C019B21F0010142F8183C029B65
:108BA40042F8081C42F8143C4FF0807342F8043C2D
:108BB400002343674FF43C43203A0265C367704780
:108BC4006D8700000A4B046F98600A4B1C60036EAB
:108BD40083F30B88104681F30988002163B681F37F
:108BE4001188BFF36F8F00220023FFF7BDFD00BF84
:108BF400B8CE0020B4C8002001B5EFF30580A0F181
:108C040010004FEAC0000449014409C99847BDE86F
:108C1400014002490847000040FD0000818C00002B
:108C2400114B124A2DE9F041D518013DB5FBF3F57E
:108C3400DFF83C805D430F4B074608EB0304013C1F
:108C4400B4FBF3F403FB04540E1B30460A4906F04C
:108C5400A7FF701942460021083E06F0AEFF3E67AA
:108C640004F10800BDE8F0810100000000000000EC
:108C74000800000004000000B0FF0000044B9968E5
:108C84005869884203D003494FF080520A60704704
:108C9400B8CE002004ED00E0154B9A6A12F0007F74
:108CA4009A6A14BF1E201D2012F0807F9A6A18BF92
:108CB4001F2012F4801F9A6A18BF022012F4002F9A
:108CC4009A6A18BF212012F4802F9A6A18BF2220B2
:108CD40012F4003F9A6A18BF232012F4803F9A6A64
:108CE40018BF24206FEA02426FEA12429A62704768
:108CF40000ED00E010B5194B0246986A9C6A10F426
:108D0400805F14BF1720162014F4006F9C6A18BFEC
:108D14001820A40509D5986B986A000404D51AB1E3
:108D24009A6A22F400429A6219200C4B9A6A12F44D
:108D3400806F9A6A18BF1A20D2050CD49B6A13F468
:108D4400005F18BF1C20054A936A43F47F43936273
:108D540000230B7010BD1B20F5E700BF00ED00E001
:108D640010B51C4B0246986A9C6A10F0100F14BF91
:108D74001120102014F0080F9C6A18BF1220A407B9
:108D840009D5586B986A000604D51AB19A6A22F07C
:108D940080029A6213200F4B9A6A12F0010F9A6AAA
:108DA40018BF142012F0200F9A6A18BF1520D40699
:108DB40058BF9B6A074B9A6A920642BF5A6A22F4CA
:108DC40000525A629A6A42F0FF029A6200230B70C0
:108DD40010BD00BF00ED00E0F0B54A4B04465B68EF
:108DE40000258BB0C3F3080385F31188BFF36F8F9D
:108DF40002F07F40B0F17F4F16D1D60714D4550648
:108E040003D4100704D4012504E012F0040200D0B6
:108E14000C4600250022033B8DF80720032B05D8C0
:108E2400DFE803F02462665F2C46F3E700239DF835
:108E34000720CAB902AE04F12007324620686168EF
:108E4400083403C2BC421646F7D1099A002D53D008
:108E5400C2F3080121B96FEA52226FEA4222099251
:108E6400184602A905F06CFD0BB0F0BD254BDA6A7B
:108E74009107DBD4DA6A002AD8DBDA6A5200D5D546
:108E84005A69A16942F480725A61BFF34F8FBFF3EC
:108E94006F8F5A6931F8021C22F480725A61BFF351
:108EA4004F8FBFF36F8F4DF60272914201D1236849
:108EB400BDE79A6AD2B232B101200DF10701FFF782
:108EC4004FFF0346B3E79A6A12F47F4F05D001209F
:108ED4000DF10701FFF70EFFF3E79B6AB3F5803F3F
:108EE400A4D3FFF7D9FEECE700200DF10701E6E774
:108EF40000200DF10701EDE722F4FF7222F00102D8
:108F0400ADE700BF00ED00E0044B5A6942F01002E7
:108F14005A615A6942F480625A61704700ED00E078
:108F2400EFF30880EFF3098101B57246FFF754FFB0
:108F340001BD00BF002320210348C2180133412B87
:108F440082F80013F9D1704700E100E0002080F3BB
:108F54001488BFF36F8F002080F30A8880F30B8896
:108F6400FFF73CFD00200E490860BFF34F8F0D480A
:108F740080F3088800F03EF8202080F311880A4826
:108F84004FF40061401880F30988EFF31480022144
:108F9400084380F31488BFF36F8FFFF777FD000059
:108FA40094ED00E058E6002018D90020BFF34F8F5D
:108FB4000549064BCA6802F4E0621343CB60BFF371
:108FC4004F8F00BFFDE700BF00ED00E00400FA058D
:108FD400002318460649D1F89020C2F30722934291
:108FE40000DB7047C1F89830C1F8A0000133F6E700
:108FF40000ED00E010B572B6002484F31388FFF787
:10900400E7FF23464FF0FF300C4A03F12001013300
:10901400102B42F82100F8D100234FF0FF30074A0B
:1090240003F160010133102B42F82100F8D162B63C
:10903400BFF34F8FBFF36F8F10BD00BF00E100E09F
:10904400084B9B6883420BD1EFF3058343B1064B76
:109054005A6842F080525A605A6A22F400425A62B4
:1090640004F0E0B9B8CE002000ED00E01FB5094CD3
:10907400094A23460121094800F0EAF80023039332
:10908400074B0121E41A01A80193029400F0EAF8C5
:1090940004B010BD0000042080C50020E8FF0000DB
:1090A400D0C6002010B50C7A0B6804F01F0223F020
:1090B4001F031A43CB68640923F01F03054943EADD
:1090C400440343F00103C1F89800C1F89C20C1F89F
:1090D400A03010BD00ED00E02DE9F04F0F4614461E
:1090E40006464FF000084E4D85B0B84580F2948096
:1090F400D6F80490B9F1000F36D0B9F11F0F40F241
:10910400898019F01F0F40F08580D6F800A01AF06E
:109114001F0F7FD1504605F02AFC834609EB0A0055
:10912400013805F024FC834574D11BF1160F71D06E
:109134005C456FDDC5F898B0D5F89C10C5F898B0BB
:10914400D5F8A03021F01F0143F01F0AD6E9003200
:109154001A44994202F1FF391ED1CA4508D1314659
:109164005FFA8BF005F00CFC08F101080C36BCE743
:109174003146C5F898B0D5F89C3022F01F0203F0B0
:109184001F031343C5F89C30E0B205F0F9FB10F15E
:10919400160F3FD0441CE7E7C5F898B0D5F8A020D7
:1091A400013B23F01F0302F01F021343CA4531465B
:1091B400E0B2C5F8A030E8D005F0E2FB10F1160FDC
:1091C40028D0C5F898B0D5F89C209DF808300AF14D
:1091D400FF3A62F304038DF80830D5F8A0309DF807
:1091E40008205B0863F347128DF80820D6E90032A3
:1091F4001344009323F01F03411C5344A3EB0903BE
:10920400C8B223F01F030F28039303D86946FFF75E
:1092140049FFBFE76FF01504204605B0BDE8F08FA5
:1092240000ED00E00522044BC3F89420BFF34F8FF8
:10923400BFF36F8F704700BF00ED00E0BFF35F8F97
:109244000022024BC3F89420704700BF00ED00E0F9
:1092540010B5034C2278FFF73FFF207010BD00BF0C
:10926400F4CF00202DE9F74F294D8A4606464FF0EA
:109274000008AB46274FD0451BDAD6F80490B9F165
:10928400000F3FD031680846019105F070FB019949
:10929400044609EB0100013805F069FB84424FF0F4
:1092A40014021D4B08D002FB08F36FF015024BF8B3
:1092B400032003B0BDE8F08F14F1160F2C60F8D032
:1092C4001978A142F5DD02FB08B0C7F89840C7F849
:1092D4009840D7F89C4000F10801007B64F3040037
:1092E4000871D7F8A0000C79400860F347140C719A
:1092F400D7F89C1021F01F016960D7F8A01021F065
:109304001F01296108F1010814350C36B3E700BFC9
:10931400B8C8002000ED00E0F4CF002038B50E4DB1
:109324002C68102C15D80020FFF788FF0B4B0C4A33
:10933400C3F8C020844205D10A4B00201C70FFF7FB
:1093440071FF38BD696801EB0011FFF7ABFE013016
:10935400F0E74FF0FF30F4E7F4FF000000ED00E029
:10936400AAFF4400F4CF002008B5024B1B689847BD
:10937400002008BDCCC80020034B044A1860937831
:1093840043F0020393707047CCC8002084C50020CA
:1093940008B50649064821F00701C1F1005202F55B
:1093A400802205F09BF9002008BD00BF6BEC002073
:1093B40058EC0020084B70B5C31A0D4607499B10A2
:1093C400044659434022064805F018FB2B46014643
:1093D4002046BDE870401847E4C80020B76DDBB6EE
:1093E400F0FC0000402373B50B4C0093041B0B46A8
:1093F4000D460A49A41061430646094A094805F086
:109404002AFB011E05DA30462B4602B0BDE8704047
:10941400184702B070BD00BFE4C80020B76DDBB6CA
:10942400C7EA0000F0FC000070B5002201210446E8
:109434000520FFF711FB0F4801F076FA0E4B984216
:1094440015D101F081FA26690C49304605F0EEF990
:1094540000280BDB012535642469084904F11C004C
:1094640005F0E4F9002801DB0020E56470BD6FF02D
:109474000400FBE7B99400000000AD0B1C000100E0
:1094840001460C2300224B4370B50848C4184033EE
:109494001844D4E90E56A26305F09DFA2DB1324664
:1094A4002B46BDE870400248184770BDE4C8002050
:1094B400F0FC000010B1012804D07047034B1B6C72
:1094C4005B0701D1FFF7DCBF704700BFE4C8002091
:1094D40008B54FF02003EFF3118183F31288BFF333
:1094E4006F8F114A136843F002001060DA0708D442
:1094F40081F31188BFF36F8FBDE80840012001F0AC
:1095040033BA0A4BD3F80C24D3F80C34DB07EFD569
:10951400074805F060FA81F31188BFF36F8FBDE847
:1095240008400020FFF7ACBF34C9002000500040C1
:1095340024C900201FB500220123CDE902236B4674
:10954400084ACDF800D0CDF804D005F0B3FA0028CD
:1095540005DB4FF400520023684603F025FB05B0F9
:109564005DF804FBE5EA000010B54FF02003EFF3CB
:10957400118483F31288BFF36F8F074A136823F0B3
:109584000201DB07116002D4012005F0E8FB84F33B
:109594001188BFF36F8F10BD34C900202DE9F0414D
:1095A400012207463549D1E8EF3FC1E8E02F002802
:1095B400F9D133B9324933484B60CB608A6005F046
:1095C40048F97B1E012B28D8012F06D12E4BD3F846
:1095D4001C3403F00303022B1FD005F0FCFF0546E7
:1095E400E8B92A4B1B78D3B102220646264BC3F8AE
:1095F4000823254CDFF89880D4F81824D4F81834BC
:10960400D20316D503F00303022B01D0012F10D18E
:1096140075B386F31188BFF36F8FBDE8F0814FF007
:109624002003EFF3118683F31288BFF36F8F0125B4
:10963400DFE7C5B13046FFF7E7F9D4F81835DBB2F8
:10964400012BD9D1D4F80421002AD5D00022C4F8A2
:109654000421D4F804210222C4F818252022C8F8D1
:109664008021A360C8E70021112003F0BBFEE4E7DA
:109674000222054BC3F80423CFE700BFE0C8002053
:10968400D0C8002000C900200050004016D8002097
:1096940000E100E010B5044C2046FFF747F82046EF
:1096A400FFF76AFE002010BDB1960000F7B504462E
:1096B4000325134E8DF80700EFF311874FF02001B7
:1096C40081F3118801220DF10701002001F00AFE47
:1096D40087F3118820B101233370204603B0F0BD15
:1096E4003378002BF9D0013D08D005F074FF002831
:1096F400E2D10021212003F075FEDDE73570ECE7AF
:10970400F5CF002008B5074805F0E4FE38B1064857
:10971400FFF732FE0448FFF709F8002008BD6FF098
:109724001200FBE72CFD0000319700000A2838B531
:109734000446074D04D1AB680D2128465B68984761
:10974400AB6803485B68E1B29847204638BD00BF68
:109754002CFD000030B5406801F01F04057BB2F514
:10976400001F85B044EA451405D1204601F0E4FB0E
:10977400002005B030BD0025B2F5800FCDE90255BB
:1097840014D1B3F1007F0CBF042305238DF80830F6
:1097940000232046194602AA01F0FEF9204B984204
:1097A40038D10121204601F07DFBE1E7B3F1C06F20
:1097B40025D0B3F1007F14BF012302238DF80830B4
:1097C400836823FA01F111F00101E1D1B2F1A07F24
:1097D400DED104F01F03620903F180031DD1114A95
:1097E40052F82330DB07D3D40DF107052946204670
:1097F40001F004FB0C4B984203D00395C8E7032304
:10980400DCE7284601F048FB054B9842F5D06FF0A1
:109814000B00AEE76FF01500ABE751F82330FFDE25
:109824000000AD0B002584400400AD0B10B501F021
:1098340023FB044668B901F0F7FA084B98420AD1B1
:109844002146074801F0D4FA224605213120FFF7CA
:1098540003F9002010BD6FF00400FBE70000AD0B1E
:1098640069980000430970B507D10B4B596821B1C1
:1098740001250C68094E854001B970BD8A682A40EB
:1098840002D030464B6898471CB1236821461C46D9
:10989400F2E72346FAE700BF38C9002004FD0000C0
:1098A4002DE9FF41476801F01F053B7B144645EA5B
:1098B40043150E4628460DF1070101F09FFA14F4F2
:1098C400403F80460DD1284601F05CFB3C4B984557
:1098D40003D19DF8070001F0D9FA002004B0BDE8D7
:1098E400F08100232846194602AACDE9023301F08B
:1098F40053F9334B984214D1804503D19DF80700A6
:1099040001F0C4FAA3034CD540F206332340B3F567
:10991400837F1AD00DD8062B18D005D8B3B1022BEB
:1099240032D06FF01500D9E7B3F5807FF9D1012368
:109934000CE040F20222934228D0B3F5407F27D0B6
:10994400B3F5007FEDD1022300E007238DF8083042
:1099540084F48033C3F30043E0068DF809304CBF30
:109964000323C4F3401321038DF80A3012D50123D5
:109974007A68B34093600022284602A901F0C0F936
:109984000F4B9842A9D0CCE70423DFE70523DDE79A
:109994000323DBE7620341BF01237A68B340D3604A
:1099A400E9E7E3064FF000034CBF0324C4F340147B
:1099B4001A46284602A98DF8084001F0EDF8DFE7C1
:1099C4000000AD0B2DE9F041534D544E00EB8101E5
:1099D400814202D10020BDE8F081046804F07F03D5
:1099E400C4F343277F2B4FEA144408BF4FF0FF33DF
:1099F400192C00F28280DFE804F00D13191C1F25D6
:109A04001C80808080365F80808080808080808021
:109A140062777A7DC2F80C355C1C5AD10430D7E7E2
:109A2400C2F814355C1CF9D000245BE0C2F8083598
:109A3400F2E7C2F81035F5E75C1CC2F80835EDD042
:109A4400002404E05C1CC2F80C35E7D001245FEA72
:109A5400531C55D14FF0010EDFF8BCC00EFA03F8C9
:109A6400CCF80C8008E0C2F80835002FDAD15C1C71
:109A7400D4D000240627A646D0F8008008F4005C61
:109A8400BCF1000F1CBF01244FF0000E03F01F0CAB
:109A94005B093BD105EB8C0CDCF80032C8F3C11830
:109AA400334043EA880343EA072343EA0E0343EAC5
:109AB4004403CCF80032B1E7C2F80C35D5E7C2F85C
:109AC4006035B3F1FF3F0468A8D0C4F38034002CA0
:109AD400BCD05C0917D10124DFF83CC004FA03FEB2
:109AE400CCF808E0A646C7E7C2F86435E9E7C2F84F
:109AF4006835E6E7C2F86C35E3E76FF085006AE79E
:109B04000023DB60FFDE00239B60FBE700230CF1F6
:109B1400800C53F82C30F5E700258440F0F8FCFF66
:109B2400F0B54B79012B26D0032B21D110258B794D
:109B3400032B1DD1CE790EB1012E19D10A7912B1A0
:109B4400022A15D10E220B684468B3F5164F276814
:109B540067D02DD8B3F5165F66D016D8B3F5966FD7
:109B640064D00AD8B3F5967F63D0B3F5167F63D07B
:109B74006FF0850054E00025D9E7B3F5166F5ED089
:109B8400B3F5965FF4D1384B3CE0B3F5E14F59D0CF
:109B940007D8B3F5615F57D0B3F5964FE8D1334B8F
:109BA40030E047F61224A342E2D14FF4000329E047
:109BB400B3F5613F4AD013D8B3F5963F49D009D8DD
:109BC4004DF6C024A34246D0B3F5614FD0D14FF433
:109BD4006B0317E0B3F5E13FCAD14FF0EB7311E02B
:109BE400B3F5612F3AD008D8214CA34239D0B3F54C
:109BF400E12FBDD14FF0E86304E01E4CA342B7D17E
:109C04004FF080530469C7F82435436835431B6813
:109C14002A43C3F86C25231D03C983E803000020ED
:109C2400F0BD4FF41D03EDE7134BEBE74FF49E2318
:109C3400E8E74FF4A033E5E74FF41C33E2E74FF4D1
:109C44001D23DFE70D4BDDE70D4BDBE74FF06C73B6
:109C5400D8E70C4BD6E74FF46503D3E74FF07063B6
:109C6400D0E74FF08063CDE700B0130000A04E00B2
:109C740090D0030040420F000050270000C0750040
:109C840000F03A0000903A012DE9F74380460022A3
:109C940001210820FEF7E0FE0820FEF7C1FE0021A6
:109CA400D8F80470D8F810603C6801AAC4F800150C
:109CB400C6F80080D7F80C90484604F073FF051EE0
:109CC4004CDB019BD9F8002019791868FFF77AFE5C
:109CD400051E43DB4046311DFFF722FF05460028E1
:109CE4003CD17B68990712D506F1180000F0AEFE4E
:109CF4001E4B984236D1307E04F10C0204F590716B
:109D040005F026F80120337E984000F0AFFD0823CB
:109D1400C4F800353B7A53B9C4F81031D4F8103183
:109D24007369C4F834350123C4F8383523607B687B
:109D34009A075CBF4FF48073C4F804337B68DB0676
:109D440044BF4FF48003C4F804333369C4F8443582
:109D54000023C4F848350123A360E360284603B018
:109D6400BDE8F0836FF00405F8E700BF0000AD0B19
:109D7400F8B504460D46076905F02DFCB0B92E4B25
:109D84001B789BB16426606804F042FF00BB01208D
:109D940004F0DCFF013EF6D10021112003F022FB88
:109DA400F0E786F31188BFF36F8FF5E74FF02003D8
:109DB400EFF3118683F31288BFF36F8F6068314627
:109DC40004F026FF90B986F31188BFF36F8FEDE797
:109DD4004FF02003EFF3118683F31288BFF36F8FE4
:109DE4006068314604F014FF0028DAD03B691D7026
:109DF400626838691368C3F844050120C3F848054C
:109E04000020C3F82001D3F82051C3F85801526848
:109E1400D3F85801D20608D5082062681268C2F83F
:109E240000054FF48002C3F8042301229A6081F3F1
:109E34001188BFF36F8FF8BD16D80020012383402B
:109E440070B5DC430B4AD2E8EF1F01EA0405C2E80F
:109E5400E65F002EF7D14FF4803282400648C0F806
:109E64000823BFF35F8FBFF36F8F0B4214BF012032
:109E7400002070BD48C900200050014070B40E4954
:109E840022F07F46D1E90034D01AC31844F100040B
:109E9400C1E90034A6F50013B3F5400F09D2074B0E
:109EA4001B681A0A1B069C19054B42F10005C3E9FD
:109EB400004570BC03F0FEBBE0C600204CC9002086
:109EC400E8C60020D9B101230D4A8340D2E8EFCF80
:109ED4004CEA030CC2E8E1CF0029F7D14FF48033F8
:109EE400084A8340C2F80433074BD3E8AF3FC3406A
:109EF400DB0742BF4FF40012044BC3F80021704744
:109F040048C900200050014044C9002000E100E09D
:109F14000D4B1868010A0006BFF35F8F0B4BD3F893
:109F24000435181841F10001B3F5801F0AD2084B1B
:109F3400D3E90023904271EB030303D210F1807044
:109F440041F10001704700BF4CC90020005001409E
:109F5400E8C600202DE9F04F85B016461F4604469A
:109F64009DF840A0FFF76AFF0190FFF7D1FFB042D0
:109F740071EB070352D23B4B301A67EB0101984255
:109F840071F100014DD2384B03EB0413D3E90223E2
:109F94009F4208BF964258D04FF48038334908FA9C
:109FA40004F8204626F07F4BC1F8488304F079FE7C
:109FB4004FF00309584604F15005AD00ADB205F168
:109FC400804504F5A87305F5A8350293029A20F09C
:109FD4007F4341F82230C1F84483D1F80435244A40
:109FE400C01A033820F07F4090422ED9286868B107
:109FF400D1F80435A3EB0B0020F07F40B0F5000F3F
:10A00400039322D9204604F04CFE039BBAF1000FBF
:10A0140007D109EB030009F10109D7E7BAF1000FF1
:10A0240009D06FF0150520460199FFF74BFF28462C
:10A0340005B0BDE8F08F01230E4AA340D2E8EF0F2C
:10A044001843C2E8E10F0029F8D107490E9823010B
:10A05400C8500F9B01EB04120025C2E9026753604C
:10A06400E1E700BF01008000D0C60020005001409D
:10A07400FDFF7F0044C900207FB500254FF0FF306D
:10A084004FF0FF31194C1A4B0226C4F80833C4F8B8
:10A094004833184BC4F80855C3E902014FF4803320
:10A0A4004FF40012C4F80433134B0121C4F80463C1
:10A0B4001520C3F880212A46FEF7CEFC1520FEF7B2
:10A0C400AFFC01230D4AA360236013600C4B0D4ABF
:10A0D400009328460023CDE90155FFF73BFF3046A6
:10A0E400FFF75CFA284604B070BD00BF0050014081
:10A0F40003000F00D0C6002000E100E048C90020A2
:10A10400819E0000FFFF7F002DE9F7432E4BD3F81B
:10A11400042390070BD5D3F8042142B10022C3F8DD
:10A1240004212A4AD3F80431136801331360264A00
:10A13400D2F80433D90327D5254BD3E8EF1F21F0F8
:10A144000100C3E8E40F002CF7D1CB0702D4D2F806
:10A154004031CBB100251C4CC4F84051D4F84031F7
:10A16400FFF7D6FE4FF02003EFF3118283F312883A
:10A17400BFF36F8F174BD3E90267B042B94106D2E0
:10A1840082F31188BFF36F8F03B0BDE8F0834FF003
:10A19400FF38D3E900104FF0FF391D60C3E902898D
:10A1A4004FF48033C4F84833C4F84051D4F84031F4
:10A1B40082F31188BFF36F8F0029E5D000903246F7
:10A1C4003B4628468847DFE7005001404CC9002041
:10A1D40044C90020D0C600201FB5431C22D001284A
:10A1E40022DD124A124B9042D4BF04461C46FFF7AC
:10A1F4008FFE104B0E49D3E90023801AB0F5000FEF
:10A2040028BF002404448C4228BF0C4600200A497D
:10A21400A218CDE90100009143F10003FFF79AFE73
:10A2240004B010BD024CE2E70124E0E7FEFF7F002A
:10A23400FFFF7F00E0C60020819E000008B5FFF705
:10A2440067FE024B1B68C01A08BD00BFE0C60020B1
:10A2540070B50546054C064EB44200D370BDD4E932
:10A264000031284698470834F6E700BF3C0801004F
:10A274003C08010070B5002201212A20FEF7ECFB06
:10A28400074802F025F80546064C074EB44201D3B0
:10A29400284670BDD4E90031284698470834F5E7CC
:10A2A400D80001003C0801004408010037B50F4CF8
:10A2B4000F4DAC4215D30F490F480DF1060201F0C2
:10A2C400B5FC012808D1BDF8063023F004039BB285
:10A2D40013B10A4801F0D2FB02F060F8002003B089
:10A2E40030BDD4E9003098470834E2E7440801005F
:10A2F400440801000C07010017070100C404010011
:10A30400F0B50F4B01461A680E4B0B250026184674
:10A314001F46B84201D3013D04D11846013A1960E1
:10A324005A60F0BD04688C42FBD03CB14468141BF5
:10A33400A642BCBF034626460830EAE70346ECE7DC
:10A34400C0C90020CCC900200020054BC3E900008F
:10A35400044BD3E8EF2FC3E8E10F0029F9D170478C
:10A36400C4C90020C0C900202DE9F04F87B00546BC
:10A374000E4605F0A8F820B96FF06D0007B0BDE8EF
:10A38400F08F05F00AFB33680446002B0F4604D116
:10A3940002F0A6FF6FF00A00F0E7BCBF4FF0FF33F6
:10A3A40033600122002101A805F0ADF9E8460595C6
:10A3B4004FF02003EFF3118B83F31288BFF36F8FF9
:10A3C40005F04EFCDFF828A1DFF828915AF80000C8
:10A3D400FFF796FFD9F8003042689A426FD1002304
:10A3E400454D00936B68002B70D1C5E900888BF351
:10A3F4001188BFF36F8F33685A1C6CD04FF4004E32
:10A4040040F2CF70002123EAE37C4FF4FA62002388
:10A41400CCFB0E01FDF794FE02460B4601A802F0A8
:10A42400C3FB4FF02003EFF3118B83F31288BFF3C8
:10A434006F8F00222B685BB1434556D10099002AE7
:10A444004DD16A6829609A4200D169600023009363
:10A4540005F006FC5AF80000FFF752FFD9F8003067
:10A4640043608BF31188BFF36F8F05F02CF800283D
:10A4740082D035686B1C27D005F08FFA4FF4FA6E42
:10A48400A0FB0E320EFB0121A4FB0E420EFB0722A1
:10A49400DB0BE40B43EA414344EA42441B1B4FEA0F
:10A4A400D1314FEAE57C61EBD231ED1A6CEB010C52
:10A4B400BCF1000FB8BF002535602DB96AE74360D1
:10A4C4008BF31188BFF36F8F002057E7C3F8008028
:10A4D400C5F804808BE74FF0FF3213469EE7116006
:10A4E4006968994208BF6A60B0E71A461B68A2E728
:10A4F40008000000C0C90020C4C90020024600B5FD
:10A5040005F0AEFB014B1A505DF804FB0C00000093
:10A5140070B40468094B2CB19C4203D303F1700559
:10A52400AC4206D3064D2C78661C03EB04132E7044
:10A534000360006870BC05F0E6B800BF50C9002095
:10A54400F8CF002038B505460A4BD3E8EF1F013198
:10A55400C3E8E21F002AF8D1074B1C6804B938BDD0
:10A564006369AB4200D015B9201D02F0F9FA2468E2
:10A57400F4E700BFC0C90020C4C90020014600227E
:10A584000023014805F000B81CCA00200146014818
:10A5940005F004B81CCA002001460022002301482B
:10A5A40004F0F2BF30CA00200146014804F0F6BFAF
:10A5B40030CA002008B54FF480620649064804F00A
:10A5C40098FFBDE808404FF402520449044804F0DF
:10A5D40090BF00BFF9CF00201CCA0020E8840020EF
:10A5E40030CA002010B5044B1C6804B910BD201DEE
:10A5F40002F0B6FA2468F8E7C4C9002008B5024896
:10A6040001F036FA002008BD75A600002DE9F843D4
:10A61400134E144FDFF8508000220023304602F01E
:10A624006BFA0546B8B9BDE8F883237ADA070AD489
:10A634009B0708D4216819B1484605F03DFA10B1CA
:10A644004846636898470C34BC42EED329464046DA
:10A6540004F0A4FFE0E7054C05F10409F4E700BFAA
:10A66400C0C600206CC6002088C6002054C6002046
:10A674002DE9F04104460026184DDFF86480454575
:10A6840018D34EB32046FDF7CBFE0022411D002314
:10A69400144804F079FF0546F0B121460430FDF773
:10A6A400B7FE2946104805F023F8BDE8F0410F48ED
:10A6B40002F098BB2F7AFA070AD4296819B1204608
:10A6C40005F0FAF920B1BB0704D520466B6898471A
:10A6D4000C35D4E70126FBE7BDE8F08154C6002021
:10A6E4006CC6002088C60020C0C60020B0C500206B
:10A6F40008B548B90549064801F0C0F9BDE8084065
:10A704000449034801F0BAB908BD00BF410701007C
:10A7140075060100600701002DE9F0411F46154B45
:10A72400044693F800800D461646A2B0B8F1000F17
:10A7340015D1684604F019F93A4631462846289B53
:10A74400A0470446684604F011F9B8F1000F02D09E
:10A75400094802F095F9204622B0BDE8F0814FF097
:10A76400FF324FF0FF33044802F010F90028E0D024
:10A774001F24F0E716D800209CC6002070B53026B0
:10A7840092B006AB05460C4632460021184605F049
:10A7940014FACDE90454CDE9020654B1012304AA04
:10A7A400009200210448019302AA00F007F812B0B5
:10A7B40070BD2046FBE700BF0001004030B401F546
:10A7C4000045B5F5803F039C0DD243EA0405FF2DF7
:10A7D40009D844EA0324134644EA0142014630BC42
:10A7E4000348FFF799BF6FF0800030BC704700BF8B
:10A7F400217C000030B50468ACB1B4FA84F30122C2
:10A80400C3F11F03DBB29A4024EA0202D0E8EF5FEF
:10A81400A54204D1C0E8EC2FBCF1000FF6D1EAD177
:10A8240002480B7030BD0248FCE700BF0000AD0BCE
:10A834000200AD0B10B50368CB40DB0710D4012335
:10A844008B40026843EA0201D0E8EF4F944204D1FE
:10A85400C0E8EC1FBCF1000FF6D1F2D1014810BDE5
:10A864000148FCE70000AD0B0400AD0B014BC3F83D
:10A874000405704700700140F7B5044618B101287B
:10A8840022D003B0F0BD0222264B0646C3F80823AB
:10A89400C3F80401D3F804210122DA60012342F24F
:10A8A4001075204F8DF80730D4B1012CE9D1D7F8B9
:10A8B4000C3403F4803386BB002BE2D0012004F077
:10A8C40045FA013DF3D1DCE70022164B0DF10706F2
:10A8D400C3F80803C3F80021D3F800215860DDE76A
:10A8E400D7F8183403F480333EB9002BC9D00120C3
:10A8F40004F02CFA013DF3D1C3E7D7F8182402F091
:10A9040003023270002BBCD09DF807000128B8D197
:10A9140004F01CFA013DC7D1B3E7D7F80C2402F0C8
:10A924000102EEE700500040044B1A7922B90122DB
:10A9340018601A71024870470248704744CA0020E0
:10A944000000AD0B0C00AD0B08B50520FEF776F842
:10A9540010B90520FEF764F80122024BC3F818254C
:10A9640008BD00BF0050004008B510B101282ED02A
:10A9740008BD1C4AD2F81814D2F81834C90317D5E4
:10A9840003F00303022B05D0012B02D00020FFF7B4
:10A9940073FF0123134AC2F818350023C2F80431A7
:10A9A400D2F804310223C2F8043301239360DFE7B1
:10A9B400D2F81434DB07ECD5D2F81C3403F00303CB
:10A9C400013B012BE2D80223C2F80433D0E7002272
:10A9D400044BC3F80021D3F80021C3F80403186022
:10A9E400C6E700BF0050004010B5164BD3F8002155
:10A9F40052B10020C3F80001D3F800210122C3F8AA
:10AA04000823114B1B6898470E4BD3F8042182B1DD
:10AA14000022C3F80421D3F80421D3F81824D3F86E
:10AA24001824022102F00302012A03D1C3F81815E5
:10AA34009A6010BDC3F80813034B0120BDE8104011
:10AA44001B6818470050004044CA002001460148D2
:10AA5400FFF7D0BEC0C50020036803F01F025B09E6
:10AA64000260024818BF0020704700BF00258440E0
:10AA7400034BC0B2083033F81000C0F340107047E5
:10AA8400C4C50020034BC0B2083033F81000C0F333
:10AA940040007047C4C50020034BC0B2083033F8EF
:10AAA4001000400B704700BFC4C5002070B50D4CAA
:10AAB40000F1080334F813300546DA050E4607D5CD
:10AAC400C3F3432304EBC302526854F8333098476A
:10AAD400A3682BB131462846E268BDE870401847A8
:10AAE40070BD00BFC4C5002010B4124AC0B2083003
:10AAF40032F81030D9051BD5C3F3432123F4F8539E
:10AB040022F81030002002F10E0434F8023F13F44E
:10AB1400807F03D0C3F34323994209D00130202816
:10AB2400F3D1002342F83130034810BCFFF782BE52
:10AB340010BC7047C4C5002018C600200146002080
:10AB4400F0B501260746104B104D114C5A199208C6
:10AB540006FA02F2114208D0D3F800C0BCF1000F8B
:10AB640003D01F60D3F800C010430433A342EDD1D7
:10AB7400084BD3F87C2132B10022C3F87C21D3F8EE
:10AB84007C3140F00040F0BD0011034000EFFCBFF9
:10AB940020110340001003402DE9FF410446904674
:10ABA4001D4601B3FFF76EFF18B12046FFF760FFA3
:10ABB40028BB00230DF10F02CDE900338DF80E30D0
:10ABC4008DF80F3020460B460DF10E0104F0C9F844
:10ABD4004749E3B2083331F8132022F0020242F06D
:10ABE400010221F81320B8F1000F32D0204698F862
:10ABF4000060D8F80420FFF745FF10B1F2B13D48DA
:10AC040029E03B4FE0B2083037F8101021F0200162
:10AC1400C904C90C27F8101082B1032EEFD8D8F854
:10AC2400043093F800C06246920002F1804202F5BB
:10AC340044329EB9C2F81065C2F810652C49E3B2DB
:10AC4400083331F8132022F01C0242EA860221F86C
:10AC540013201DBB284804B0BDE8F081D2F810359C
:10AC640041EA4C3123F00303C2F81035D2F8103511
:10AC740041F0200123F4473323F44073C2F8103524
:10AC8400D2F810E5230203F4F85343EA0E0343EA2F
:10AC94000643C2F8103527F81010CFE72046D5E94F
:10ACA4000067FFF721FF002ED4D0114DD5E9002312
:10ACB400964201D19F4219D010480DF10F01FFF7C0
:10ACC40099FD0D4B9842C6D19DF80F20E0B205EBDB
:10ACD400C20308305F6035F8103045F8326043EA4B
:10ACE400422343F4807325F81030B3E70022EDE7E4
:10ACF400C4C500200400AD0B0000AD0B18C6002035
:10AD0400F0B50446164685B029B3FFF7BBFE20B95B
:10AD14002046FFF7ADFE002862D1324FE5B2083578
:10AD240037F8153013F01C0F02D04B78012B57D095
:10AD340001238DF80F3000234A1CCDE9001320466F
:10AD44008B1C0DF10F0104F00CF837F8153043F0AB
:10AD5400030327F8153016B9234805B0F0BD204683
:10AD6400FFF790FE00283BD096F800C00023614610
:10AD74001C4FE5B2083537F81500890020F0200093
:10AD840001F18041C00401F54431C00CC1F8103513
:10AD940027F81500C1F810357278002ADCD0D1F8F4
:10ADA4001035B67823F4981323F4F853C1F810350A
:10ADB40012042302D1F810E502F4403203F4F853EC
:10ADC4001343320543EA0E0302F4801240EA4C3086
:10ADD400134340F02000C1F8103527F81500BBE7F5
:10ADE4000248BAE7C4C500200000AD0B0400AD0B57
:10ADF400014BC3E902017047C4C5002008B50246EF
:10AE0400FFF736FE40B1054BD2B2083233F81230A8
:10AE140003485B0B0B7008BD0248FCE7C4C5002067
:10AE24000000AD0B0400AD0B70B50F4C94F85860E6
:10AE3400BEB90E4D4022314604F1100004F0BDFEAF
:10AE44003120C5F87C61D5F87C31FDF7E9FD4FF080
:10AE54000043C5F804330123054884F8583063657A
:10AE640070BD0448FCE700BFC4C5002000100340C7
:10AE74000000AD0B0500AD0B034B93F858000038F0
:10AE840018BF0120704700BFC4C500200146014817
:10AE9400FFF7D0BC14C6002001460148FFF7AABC46
:10AEA40014C6002037B50446FFF7E2FDF0B1204692
:10AEB400FFF7E8FD0546C8B92046FFF7EDFD1B4A3C
:10AEC40003B29B00D550D25803F1804303F54433B9
:10AED400D3F8102542F00102C3F8102521B1012353
:10AEE400134A8340C2F8043303B030BD114AE3B2BD
:10AEF400083332F81330C3F38203042B11D0052B2B
:10AF040011D001A80194FFF7A7FD019B0169D94065
:10AF140001F001010231204603B0BDE8304003F0E6
:10AF240069BF0321F7E70221F5E700BF00110340E1
:10AF340000100340C4C5002008B50246FFF798FD81
:10AF4400C0B11046FFF79EFDA0B91046FFF7A4FD5F
:10AF540001230B4A8340C2F8083303B29B0003F178
:10AF6400804303F54433D3F8102522F00302C3F8D9
:10AF7400102508BD0021BDE80840104603F03ABF83
:10AF84000010034073B51B4EC5B2083536F81530B2
:10AF94000446DB072BD5FFF7CFFF2046FFF768FDFC
:10AFA40068B12046FFF778FD002203B29B0003F14D
:10AFB400804303F54433C3F81025C3F81025204615
:10AFC400FFF792FD002301A826F815300194FFF73E
:10AFD40043FD019B00EB8300D0F80022064B134095
:10AFE40043F00203C0F80032044802B070BD0448C4
:10AFF400FBE700BFC4C50020F0F8FCFF0000AD0B68
:10B004000400AD0B2DE9F74F4E4BD3F80403C0B247
:10B0140040F00040FFF792FD051E14DA4A4FDFF8B6
:10B024002C913B6A00933B624FF00108009C84B969
:10B034004FF00040FFF782FD3B6A00933B62002B18
:10B04400F2D125F000450124002D63D103B0BDE801
:10B05400F08F94FAA4F4B4FA84F4E00804F1080339
:10B0640039F813A004F007021DF8003008FA02F2C0
:10B0740023EA02030DF8003001A80194FFF7ECFC69
:10B08400019B4FEA9A01803350F82360CAF3820B84
:10B094004B07DA46C6F3014621D520465946FFF749
:10B0A40005FD01A80194FFF7D7FC019BF6B280339C
:10B0B40050F82330C3F301439E4207D100212046B8
:10B0C40003F098FE3146204603F094FE01A8019453
:10B0D400FFF7C2FC019B08FA03F30362A6E7022E02
:10B0E4000CD10321204603F085FE0BF00503012B50
:10B0F400ECD151462046FFF7D9FCE7E70221204670
:10B1040003F078FEBBF1030FF3D0032EDED1BBF1C5
:10B11400020FEDE795FAA5F3B3FA83F304FA03F209
:10B124009B0003F1804303F54433D3F81005D3F8AF
:10B134001015C0F30420C1F3014125EA0205FFF70D
:10B14400B5FC81E70010034000258440C4C50020FD
:10B1540070B5084C0E462379154643B92A20FDF7ED
:10B164005FFC0123044823712660A56070BD034879
:10B17400FCE700BF4CCA00200000AD0B0C00AD0B77
:10B18400002330B50D4A50F8234003F5A271013372
:10B19400082B42F82140F6D10023084A00F11C0193
:10B1A40003F5B27451F8045F0133082B42F82450BC
:10B1B400F6D1036CC2F8043330BD00BF00A00240D6
:10B1C40000234FF0FF31134AC2F81035C2F814358A
:10B1D400C2F81835C2F81C35C2F82035C2F8243537
:10B1E400C2F82835C2F82C35C2F89035C2F8943527
:10B1F400C2F89835C2F89C35C2F8A035C2F8A43517
:10B20400C2F8A835C2F8AC35C2F80813024A137163
:10B21400704700BF00A002404CCA00200123024A2C
:10B224008340C2F80433704700A002400123024A5D
:10B234008340C2F80833704700A00240F8B50126E5
:10B2440000270B4B0B4DD3F80C4304B9F8BD94FA0B
:10B25400A4F0B0FA80F006FA00F324EA0304064BE3
:10B2640082009F502B68002BEFD0A9689847ECE729
:10B2740000A002404CCA002000A1024008B5144BB3
:10B28400A8220021184604F098FC03221149026107
:10B294004261114A8161C2614FF4806202620022FC
:10B2A40082624262C26201660C4903464166102111
:10B2B40081660267C2664267BFF35F8F084911F86F
:10B2C400010D98540132102AF9D1BFF35F8F08BDE4
:10B2D40058CA0020A707010009D40020F9D3002090
:10B2E400C0070100F8B5182700FB0775124B0E467E
:10B2F4001D4407FB0033DB6A1446012B0AD0022BE2
:10B3040014D023B9284603F084FD844208D90024CC
:10B314002046F8BD284603F07CFD844228BF04463D
:10B3240022463146284603F07DFDF1E72846BDE874
:10B33400F84003F096BD00BF58CA002070B50368FA
:10B344000446033BDBB2052B03D8094A52F82350C9
:10B354002DB9A06808B100F01FF8002070BD03F0FB
:10B3640016FE21682B46BDE87040090C184700BF43
:10B3740004010100014B9B69184700BF20C600204F
:10B38400014B1B68184700BF20C60020014BDB6837
:10B39400184700BF20C60020014B5B69184700BF57
:10B3A40020C60020014B9B68184700BF20C6002020
:10B3B400014BDB69184700BF20C60020014B1B6A04
:10B3C400184700BF20C60020014B1B68D86870478F
:10B3D40000CB0020002330B510490A681468A3424A
:10B3E4000BD100234A6811688B4215D002EBC304C9
:10B3F400A468A04208D00133F6E702EBC305AD68A8
:10B40400A84201D00133EAE702EBC302536823F0F8
:10B41400FF0343F00303536030BD00BF20CB002083
:10B42400002230B50B4B19680C6894420FD001EB25
:10B43400C2039D68A8420BD14FF003020433D3E842
:10B44400CF1F002903D1C3E8C02F0028F7D130BD96
:10B454000132EAE718CB00202DE9F0410025064629
:10B464000F462846DFF864803368AB4201D8BDE854
:10B47400F08106EBC5046368DBB2012B17D1626867
:10B48400B8F80030B3EB124F11D1022FA06810D1DD
:10B49400FFF754FF90B9636823F0FF0343F00303FD
:10B4A40063600120B8F800300133A8F8003001359A
:10B4B400DAE70168090C03F009FDEBE70128F0D194
:10B4C400636823F0FF0343F00203E9E7F0CE0020B2
:10B4D40038B5074D01212868FFF7BEFF0221044655
:10B4E4006868FFF7B9FF0028F4D1002CF2D138BD09
:10B4F40020CB002070B5072868D8DFE800F00B6780
:10B504004F674B67400400F0F1FF0320BDE8704033
:10B51400FFF718B803202E4BD3F81446D3F8186657
:10B524002C4B1D78187000F0AFFF2B4BEDB2186850
:10B5340003F0DFFB012D1CD1284B9C4210D009D80D
:10B54400023B9C420FD001339C420FD0244B1C6021
:10B554000020DBE7234B9C42F8D16FF00C04F5E7A5
:10B564006FF00B04F2E76FF01504EFE76FF085045A
:10B57400ECE73146C4F30B0000F07AFFE8E702225F
:10B58400144B00201A7000F07FFF134B186803F06F
:10B59400B0FBDDE7FFF79CFF0220B7E70D4B1A78FD
:10B5A400012AD0B20ED1104A1168104A8C68546036
:10B5B4004968116000221A7000F066FF064B186893
:10B5C40003F097FBFFF784FF01209FE770BD00BFE6
:10B5D40000A002400AD8002008CB0020220001006D
:10B5E4001CCB00203230010004CB002020CB0020F3
:10B5F40070B5164B42681B6822F0FF0242F002024B
:10B60400C31A42601248134A0168C3F38913D2E88B
:10B61400DF4F651CC2E8D65F002EF8D101EBC301F1
:10B624004A6892B242EA04424A600268032002EB8A
:10B63400C302536823F0FF0343F00103536003F094
:10B644003CFB0122044BDA6070BD00BF10CB00202C
:10B6540018CB0020F2CE002000A002400A23F7B548
:10B664004FF47A750C4E0D4F01933168386803F02E
:10B6740069FC044640B903F03AFB40B9012001A932
:10B68400FEF772FE6E30F0D1204603B0F0BD019893
:10B69400684303F012FBE8E70CCB002014CB002036
:10B6A400054B1B782BB9054B1968054B186803F03B
:10B6B40049BC0020704700BF09D8002010CB0020EF
:10B6C40018CB00202DE9F04F95B038220021064612
:10B6D40003A804F072FA0223049308230693202398
:10B6E400089304230D93102340250F9380230122F4
:10B6F400CDE91153D523002155480B921393FEF73E
:10B7040007FF0546002840F09F80024651493079E2
:10B71400FFF71EFD03A8FFF733FD34686268B2F536
:10B724009D6F40F089806169E3680B44E16903F52A
:10B734009D630B44B3F5003F7ED82068294604F08E
:10B744003CFA33681C68D3F81C9004F53A720192F1
:10B7540004F16007404A04F1A40804F1200BB9F194
:10B76400000F5CD1C2F800B000254FF0010A25702B
:10B77400657084F802A0E570336840461B69636015
:10B7840033685B69C4F814B0A360344BC4F81890F0
:10B79400C3F80080324BE7601F600823C4F81080B0
:10B7A40084F8A43088F8015088F8025088F80350CF
:10B7B40084F860307D70BD70FD7003F0ABFB3846DB
:10B7C40003F0A8FB274B04F53A721A60264B04F1E8
:10B7D400E8021A603168254B1960254B2549C3F8E6
:10B7E4001046C3F81456244B244C1D80244B25606A
:10B7F4001D80244B83F800A0234B02951D611B6917
:10B804000293029B124B186803F075FAC8B92468B6
:10B81400A4B91E4B1C70204615B0BDE8F08F9B697F
:10B8240004F14009636433684846DB69C2F800B038
:10B83400236400F03FFE97E76FF01504FFF7C0FCA8
:10B84400E9E76FF07304F9E76FF02D04E3E700BF55
:10B8540008CB0020F9B4000004CB002018CB002052
:10B8640014CB002010CB00200CCB002000CB0020F8
:10B8740000A00240F0490200F2CE00201CCB0020C0
:10B88400F0CE00200AD800200056004009D800203D
:10B8940070B5164B42681B6822F0FF0242F00102A9
:10B8A400C31A42601248134A0168C3F38913D2E8E9
:10B8B400DF4F651CC2E8D65F002EF8D101EBC3014F
:10B8C4004A6892B242EA04424A600268032002EBE8
:10B8D400C302536823F0FF0343F00103536003F0F2
:10B8E400ECF90122044B5A6070BD00BF0CCB002060
:10B8F40014CB0020F2CE002000A0024010B5FFF7C8
:10B90400ADFE012400220321047081704270C270D4
:10B91400FFF7BEFF054B1C7003F00FFBBDE81040A2
:10B92400034B47F23051186803F0E5B909D80020F9
:10B9340008CB002010B50A4B04461B78032B0ED00D
:10B94400FFF78CFE58B101210022017002218460AE
:10B9540042708170C270BDE81040FFF799BF10BDFE
:10B964000AD800202DE9F3410546002017468846F1
:10B974001E4603F00EFB024640B915B1284603F0FB
:10B9840032FB6FF00B0002B0BDE8F0816FF058039A
:10B9940000240373042305600E4D037244738473FF
:10B9A400C47344728472C472C0F80480394603209C
:10B9B4002C7003F00AFB4FF0FF3301932B78B34252
:10B9C40001D10020DFE7022001A9FEF7CDFC002809
:10B9D400F4D0D8E70BD80020F8B5054600240F4F63
:10B9E40057F8046B2846314604F066F828B9013448
:10B9F400042CF5D14FF480300DE06CB1A31E012B63
:10BA0400F8D83046FCF70CFD0A220021284401F046
:10BA140013FF40EA0440F8BD2046FCE71C01010086
:10BA24002DE9F743002581460F46104829469046E4
:10BA34001E46019302F0C6FB041E11DB01342046AE
:10BA440003F0CFFAC9F8000068B1334642462146F4
:10BA5400019602F0B7FB28463C6003B0BDE8F083D2
:10BA64006FF01500F9E76FF00B00F6E7D8FF000060
:10BA7400014B18600020704734CB00200FB47FB511
:10BA8400089C00F007FD00282FD0002C30D01B4E5E
:10BA94001B4B3068196803F02EF960BB224609ABD2
:10BAA40003A902A80193FFF7BBFF0446A0B9DDE98F
:10BAB400020102230122FFF755FF044660B9114D2C
:10BAC4002B681868FFF788FF2B680446186803F092
:10BAD40086FA286803F080FA306803F00AF92046F1
:10BAE40004B0BDE8704004B070474FF0FF34F6E78F
:10BAF4006FF00D04F3E76FF00A04F0E73CCB00208D
:10BB040040CB002038CB00200CB42DE9FF470C9C1F
:10BB140006460D4600F0BEFC002871D0002E72D0FF
:10BB2400002C70D0002D71D03B4F3C4B3868196805
:10BB340003F0E1F800286CD122460DAB03A902A85A
:10BB44000193FFF76DFF0446D8BB354BDDF8088041
:10BB5400D3F80090B9F1000F0FD0324BD3F800A006
:10BB640054450AD0404659F8341003F0A5FF60B399
:10BB740009EBC409D9F804404CBB02230122404616
:10BB84000399FFF7EFFE0446D8B9DFF89C803046EE
:10BB9400D8F8004062682168AA4228BF2A4603F008
:10BBA400FFFF6368AB4228D82068FFF715FF0446FF
:10BBB400D8F80030186803F012FAD8F8000003F03F
:10BBC4000BFA386803F095F811E00134C8E73868D7
:10BBD40003F08FF8424629463046A047044618B978
:10BBE4003046FFF7F9FE0446404603F0FCF92046D0
:10BBF40004B0BDE8F04702B070476FF00604D7E721
:10BC04004FF0FF34F3E76FF00D04F0E76FF0150425
:10BC1400EDE76FF00A04EAE73CCB002040CB0020BC
:10BC24002CCB002028CB002038CB00200EB42DE9EB
:10BC3400F741DDF82480054600F02CFC002840D0B4
:10BC4400002D41D0B8F1000F3ED0224F224B38686E
:10BC5400196803F050F8002839D12846FCF7E0FBB6
:10BC6400441C204603F0BDF9064638B32246294653
:10BC740003F006FF2146022301223046FFF772FE3D
:10BC8400044690B9154D0AAA2B68414618680192DA
:10BC940002F07EFA2B68041E186808BF6FF04C048B
:10BCA40003F09DF9286803F097F9386803F021F848
:10BCB400204603B0BDE8F04103B070476FF00B04B9
:10BCC400F3E74FF0FF34F3E76FF00D04F0E76FF0A4
:10BCD4000A04EDE73CCB002040CB002038CB002009
:10BCE40038B5C3680446A72B03D0206803F077F95E
:10BCF40008E0032908D0042926D0022902BF012222
:10BD0400154B1A70002038BD134B1A78022A06D13D
:10BD1400006808B103F063F90020C0B2F3E70F4DE7
:10BD24002A685AB100689047002320682B6003F00A
:10BD340056F90B4B186802F0DCFFEDE7094A106076
:10BD4400022201201A70E8E7074B1B68002BCCD0B5
:10BD540000689847C9E700BF0BD8002030CB00200B
:10BD64003CCB002038CB002034CB0020012210B57E
:10BD740011460948FEF7CCFB014648B94FF0FF32A3
:10BD8400064B1A60BDE8104001230522FFF7EABD07
:10BD94006FF02D0010BD00BF3CCB002040CB002035
:10BDA4004FF44872002108B5084803F006FF002349
:10BDB4001946074A07481370044A0133082BC2E99D
:10BDC4000001916002F16402F7D108BD44CB002068
:10BDD4000CD800201EF1AD1B30B5024600236425AB
:10BDE400054905FB03F460180C59944203D0013350
:10BDF400082BF6D1002030BD44CB002038B5FFF726
:10BE0400EBFF0446051D284603F0BEF9206C08B17B
:10BE1400FEF7BCFB60220021284603F0CEFE014B56
:10BE2400236038BD1EF1AD1B70B50024054D064ED0
:10BE340055F82400B04201D0FFF7E0FF1934C82CB4
:10BE4400F6D170BD44CB00201EF1AD1B2DE9F843A3
:10BE5400021E104C18BF012206460025A0464FF0D2
:10BE640064090D4B0D4F1A702368BB420AD009FBBD
:10BE740005831A7F66F386121A77636B13B1204623
:10BE840003F0EDF80135082D04F16404ECD1BDE8AC
:10BE9400F88300BF44CB00200CD800201EF1AD1B5A
:10BEA40070B500236426074A06FB03F5AC18555900
:10BEB4000133854202BF257F61F3C7152577082B1F
:10BEC400F2D170BD44CB00200123034A1370034A0E
:10BED40010601846704700BF0DD8002064CE0020C3
:10BEE400012208B511460448FEF712FB002818BFCA
:10BEF4006FF02D0008BD00BF68CE002008B5FFF725
:10BF04004FFFFFF7EDFF012204481146FEF700FB47
:10BF1400002818BF6FF02D0008BD00BF6CCE0020B4
:10BF240010B543690C465BB10B7F6FF304130B77B9
:10BF3400406900F09BF8034BA061186802F0D9FE39
:10BF4400002010BD6CCE002010B50B7F0C466FF3A3
:10BF540004130B77006958B9DBB223F0280343F0CC
:10BF640028030B77044B186802F0C3FE002010BDB1
:10BF740000F07CF8A061F5E76CCE00202DE9F341D8
:10BF8400DFF8E4800546D8F80000019102F0B3FE22
:10BF9400074650B1019B002B63D11023AB614FF0D6
:10BFA400FF37384602B0BDE8F081286CA8B1FCF731
:10BFB40037FA461C304602F0ECFF044678B92846AE
:10BFC40003F089F808B16923AB61D8F8000002F0E6
:10BFD40090FE6920FEF792FAE1E73E46EAE72B6815
:10BFE400042203610023027243728372C37295F8C0
:10BFF400472005F14401013292008260143003F0BD
:10C00400CFFDE6B13246296C206803F039FD666045
:10C014002B7F042043F01003224647F281012B7743
:10C0240002F0D3FF284603F056F80028B9D1284679
:10C0340003F04DF840B9A8690028B2D0CAE72670C9
:10C044006670A670E670E2E7022001A9FEF78CF99B
:10C0540010F10B0F05D00028E9D00028B8BF4042EA
:10C06400B8E77420B6E700BF6CCE002070289ABFF2
:10C07400024B53F820000248704700BF2C01010016
:10C08400ADBAADBA2DE9F041056807460C463DB19D
:10C0940001F47043B3F5005F05D13F4BC3E90015CC
:10C0A4000020BDE8F0813D4E336863B144F20402E0
:10C0B400914260D00BD844F2020399424AD044F230
:10C0C400030399424FD0386802F089FFE8E744F24D
:10C0D400012221F4807393420FD044F20313994256
:10C0E400F1D12F4C206808B102F079FF01222D4BC9
:10C0F4001A7025600420336824E0DFF8AC80D8F897
:10C10400000008B102F06BFF44F201339C420CBF03
:10C114000322022295F85170244B254C1A70C8F85A
:10C12400005017F00805336822780DD01AB905209D
:10C13400984701232370FB0702D5022033689847F0
:10C14400012033689847ABE7002AF4D006209847CB
:10C154002570F0E7174C206808B102F040FF032077
:10C1640033682560EEE70E4C206808B102F037FF13
:10C1740000220C4BBCE72A78032AA4D8DFE802F09B
:10C1840002050709072098479DE70820FBE70920D7
:10C19400F9E70A20F7E700BF80CE002070CE002028
:10C1A40074CE00200ED800207CCE00200FD80020B2
:10C1B40010D8002078CE002008B50023094A0A4888
:10C1C40013700A4A13700A4A13700A4A13700A4A0F
:10C1D400136001221146FEF79BF9002818BF6FF087
:10C1E4002D0008BD10D8002088CE002012D80020D1
:10C1F40011D800200FD8002070CE002010B50B4CB1
:10C20400206818B102F0EBFE00232360084C20687C
:10C2140018B102F0E4FE00232360064C206818B134
:10C2240002F0DDFE00232360002010BD7CCE002040
:10C2340078CE002074CE002038B5064B1C6834B18B
:10C24400436885890268C1899BB2E8B2A04700208F
:10C2540038BD00BF8CCE002037B50125074C4FF404
:10C26400FA70656102F029FD002363610193256181
:10C2740023690193019B03B030BD00BF0056004009
:10C2840030B50D4D89B0036A03AC01908DF80830C8
:10C294000FCD0FC42B6801A8236002F02FFE40B914
:10C2A400044603AD55F8043B984710B90134052CF6
:10C2B400F8D109B030BD00BFB0FF0000034BD3E894
:10C2C400EF2FC3E8E10F0029F9D1704790CE002089
:10C2D40038B50546002850D0436A002B50D0836AF5
:10C2E400002B4DD00124294BD3E8EF2F002A03D192
:10C2F400C3E8E14F0029F7D145D1686A00F0B2F8EC
:10C30400FEF758F9224BC8209C6602F0D6FC28465A
:10C31400FFF7B6FF044640B901221D4B0220DA663E
:10C32400FFF7CCFF0024204638BDFFF795FF002C13
:10C3340011DBAB6A20469847164B9C421AD013DC9B
:10C34400A4F18864033C012C11D82846FFF798FF18
:10C3540004460028E0D001220D4BDA66FEF742F9CC
:10C364000020FFF7ABFFDEE70B4B9C42EDD06FF0F4
:10C374000404F0E76FF00A04EDE76FF00D04D2E770
:10C384006FF01504CFE74FF0FF34CCE790CE0020D8
:10C3940000500040050040040100500530B52D4B0D
:10C3A40087B01A68022A05D0032A43D04FF0FF3021
:10C3B40007B030BD0422D3E8EF1F022903D1C3E83C
:10C3C400E02F0028F7D1F1D1234D0DEB02040FCD5E
:10C3D4000FC42B6801AD2360002455F8043B0134DD
:10C3E4009847052CF9D102F08BFD00F05BF850B1B1
:10C3F400002000F049F8FFF72FFFFEF7F3F80020C4
:10C40400FFF75CFFD4E7154BD3F8F030DB070DD50D
:10C414000A2002F054FCEEE70A2002F050FCD5F8A2
:10C424004034012BE7D1013CF6D1E4E741F2C124C9
:10C434000B4DF4E70422D3E8EF1F032903D1C3E82B
:10C44400E02F0028F7D1B1D1002000F01DF802F050
:10C454003BFDD0E790CE0020C4FF000000ED00E0DB
:10C4640000500040014B1860704700BF94CE00207C
:10C4740007B5044BCDE900011B686846984703B033
:10C484005DF804FB94CE0020014B1870704700BF88
:10C4940013D80020024B1878431E58425841704765
:10C4A40013D80020024B1878C31E584258417047D5
:10C4B40013D800200021074B01221970064B197074
:10C4C400064B1960064B1960064B18600648FEF7C8
:10C4D4001FB800BF14D8002015D800209CCE00201F
:10C4E400A0CE0020B0CE002098CE002070B42D4BFA
:10C4F4001B68196958691A7C00221A745C7C5A7486
:10C504009C7C9A74DC7CDA741C7D1A755C7D5A758B
:10C514009C7D03299A75DC7DDA7529D0042933D0F2
:10C5240001292FD18568204E954210D101211A7A14
:10C5340000221972597A5A72997A9A72DA7A6FF0D9
:10C544005F02DA72194B70BC186802F0D2BB911CFE
:10C5540000EB81014C682178622907D0633918BF48
:10C564000121490046F821400132DDE70121F9E7C4
:10C57400187A1972597A5A72997A9A72DA7A6FF029
:10C584005F02DA7270BC7047187A1972597A5A725B
:10C59400997A9A72DA7A6FF05F02DA720122044BA6
:10C5A4001A70EFE7B0CE0020A4CE002098CE002071
:10C5B40015D8002038B503464FF02002EFF311855B
:10C5C40082F31288BFF36F8F03F04AFB064A1458B4
:10C5D400184602F0B1FB85F31188BFF36F8F204634
:10C5E400BDE83840FCF72CBD08000000104B70B5C6
:10C5F40053F82040013053F82060A64200D870BDA3
:10C60400D4E9003595B153B12846984738B100288C
:10C61400B8BF4042FF28A8BFFF20EB681870EA6843
:10C62400537843F0010353700834E6E79847FBE777
:10C63400F4020100012208B5094B03201A70FFF728
:10C64400D5FF01F0D9F80420FFF7D0FF00F042F93C
:10C65400FBF7A6FF034A137B23F00103137308BD02
:10C6640016D8002070C7002008B50348034A0021EB
:10C67400121A02F03AFF08BDD0C6002018D80020D4
:10C684000023012270B586B0CDE904230F22019363
:10C69400CDE9023214234FF4A0720446114D124E18
:10C6A40003FB0055114906EBC01602FB0011104BA9
:10C6B4003046009500F0A4F8737B2C7423F0040337
:10C6C40073730C4B013403EBC4236B600A4BEE60B1
:10C6D400D3E8EF1F0131C3E8E21F002AF8D106B006
:10C6E40070BD00BFB8CE0020F0C6002018E10020C5
:10C6F400F1F5000018D90020B4CE002080B5002048
:10C70400A6B0FFF773FF2E4B03F5006282F308888F
:10C7140083F30A880024E0232A4D2B4E85F8223027
:10C72400EC772C766C76AC7685F820406B6A274FD4
:10C7340043F4E0236B6285F82340FCF7E5FBFCF748
:10C744004FF94FF0FF33AB62EB62FCF7E7FDFCF708
:10C754008DFC40F2011306AD2846ADF82430CDE936
:10C764001E4401F02BF8B56002F0B3FE0120FFF780
:10C774003DFF0220164DFFF739FF00F0A9FD154BD0
:10C7840075610593012314494FF48062CDE9034395
:10C7940028463B46CDE90144009400F031F80646B2
:10C7A4006A7B284622F004026A7303F029F82046C3
:10C7B400FFF766FF3A4631462846FCF703FA00BF06
:10C7C40018D9002000ED00E0B8CE002039C60000E2
:10C7D40070C70020E607010058E2002038B5064C77
:10C7E400064DAC4201D3002038BD2046D4E90112E5
:10C7F40002F07FFE1434F4E774C600209CC60020C7
:10C804002DE9F043984685B000F15803C0E916338A
:10C81400109B002603730423073222F00705437399
:10C824000F9B01EB05090F4683734946C0E9066671
:10C834008660C6730446FCF7F3F90E9B073020F0BC
:10C844000700A066C4E9187502930D9BA9EB0009C3
:10C8540001930C9B4A460093394643462046FCF715
:10C8640093F9054B66659B6803B1DB6E4846E36646
:10C8740005B0BDE8F08300BFB8CE0020F0B50025B8
:10C8840087B00595109DDDE9127604950F9D044649
:10C8940003950E9D02950D9D01950C9D0095FFF746
:10C8A400AFFFB6F1FF3F08BFB7F1FF3F05D056EA2F
:10C8B400070305D1204600F08BFC204607B0F0BDED
:10C8C4003A463346024904F1180000F07DFEF4E7CD
:10C8D40069F800002DE9F043294C2A4D87B026461B
:10C8E400AE4204F12C040FD300F0C2FC4FF4004616
:10C8F40040F2CF77224CDFF89090AC4220D307B0BF
:10C90400BDE8F04300F0C8BC54F8043C059354F867
:10C914000C3C049354F8103C039354F8143C0293D5
:10C9240054F8183C019354F81C3C009354E909232F
:10C9340054E90B01FFF764FF54F82C3C5E65CEE725
:10C94400636A5A1C0DD00021384623EAE373C3FB03
:10C95400060151EAC333D4F8008004D1404600F004
:10C9640037FC2C34C9E74FF4FA620023FBF7E8FBE9
:10C9740002460B4608F11800494600F025FEF0E790
:10C9840048FF000048FF000069F800002DE9F3416A
:10C99400044617461E464FF02003EFF3118883F335
:10C9A4001288BFF36F8FC368334A7BB18068916884
:10C9B400884219D057EA060318D188F31188BFF3C7
:10C9C4006F8F6FF00F0002B0BDE8F081916891F9AC
:10C9D4000E100133E36093682161A36088F311882A
:10C9E400BFF36F8F0020EEE72169F2E791F90E1093
:10C9F40090F90E306FF07E029942A8BF1946914219
:10CA0400B8BF11468B422EDD02F0FCFD05462246DE
:10CA14004146CDE90076194800F064FB0028E1D0D6
:10CA24004FF02003EFF3118683F31288BFF36F8F67
:10CA3400A068D0B1236821699C420AD04BB193F914
:10CA44000E309942A8BF19466FF07E039942B8BFD1
:10CA5400194602F0D7FD40B13146084800F0A6FB64
:10CA64006FF00A00AFE70025D1E7002DF4D186F37B
:10CA74001188BFF36F8FF3E7B8CE002017D80020DA
:10CA840038B5836804466BB3194A926893422CD133
:10CA9400C368012B03D9013BC360002038BD4FF0AC
:10CAA4002003EFF3118583F31288BFF36F8F0169BD
:10CAB400806802F0A7FD204602F0D8FEA06058B1BD
:10CAC40090F90E2022610022826702F099FE294625
:10CAD400084800F06BFBE0E7E06085F31188BFF3E2
:10CAE4006F8FDAE76FF01500D8E74FF0FF30D5E726
:10CAF400B8CE002017D8002037B511464FF02002D9
:10CB0400EFF3118582F31288BFF36F8F04689CB131
:10CB14002368426823F003039442036008BF436020
:10CB24000121204602F0D8FD044685F31188BFF3A5
:10CB34006F8F204603B030BD51EA0302F5D000F1F7
:10CB44000802CDE900131046294600F0CBFA00286C
:10CB5400EFD1024B9B685C69EBE700BFB8CE0020C5
:10CB640038B504464FF02003EFF3118583F31288A0
:10CB7400BFF36F8F02F07AFE48B10022826702F0A1
:10CB84003FFE2946BDE83840064800F00FBBD4E913
:10CB940002329A4218BF0133A36085F31188BFF3B0
:10CBA4006F8F38BD17D8002013B54FF02004EFF372
:10CBB400118184F31288BFF36F8F846844B1013C00
:10CBC400846081F31188BFF36F8F002002B010BD21
:10CBD40052EA030406D181F31188BFF36F8F6FF01B
:10CBE4000F00F3E7CDE900230246024800F07AFA89
:10CBF400ECE700BF17D800202DE9F04F04464FF0B2
:10CC0400FF384FF0FF39484E85B04FF02003EFF363
:10CC1400118783F31288BFF36F8FD4F880508DB9D6
:10CC2400022104F1980002F07AFD002843D1002388
:10CC34003946CDE90089029304F188023B4800F0AB
:10CC440051FCE2E7D4F884202B689542C4F8803084
:10CC540008BFC4F88430D4F8983043F00203C4F811
:10CC64009830EB6823F0040343F00103EB606B6836
:10CC740087F31188BFF36F8F284698474FF020033E
:10CC8400EFF3118B83F31288BFF36F8FEB6899076F
:10CC940023F0010219D4EA60D4F8983023F0020397
:10CCA400C4F898308BF31188BFF36F8FDB05ACD4D5
:10CCB40000F016FBA9E704F19005002201212846A3
:10CCC40002F02EFE0028F8D1B1E7306823F0030308
:10CCD400EB600028E0D000273B46D0F800A00028F5
:10CCE400DAD04268014695420CD101689FB9726856
:10CCF4003160824200D1716040F8083BFFF730FF99
:10CD040039460023BAF1000F0BD0DAF80020504660
:10CD14000F469246E3E739607268824208BF776043
:10CD2400EAE75246F3E700BFD8CE002017D8002028
:10CD3400F8B5C36804469A070F46C3F340062CD4DB
:10CD44005B071AD40B680BB983680B60E368DD07D3
:10CD540042BFA36802263B603D6858BF0126002DF0
:10CD64003AD01F4B9B68AB420AD0D5F89830D8070D
:10CD7400C3F3800214D46FF0120600233B6025E055
:10CD840002F029FCD5F898300028F0D1D907C3F374
:10CD9400C002F0D552B15B0708D46FF00F06ECE780
:10CDA400002AFAD1C3F3C003002BF6D10023236079
:10CDB400D5F8843063B9C5E92044284602F0BAFCAA
:10CDC400E36843F00403E3603B68A3603046F8BDC6
:10CDD4001C60C5F88440F0E76FF01506CDE700BF8E
:10CDE400B8CE00200146014802F0BFBC10C80020A4
:10CDF400F0B50446002089B0C4E920000E9D04F17A
:10CE04008800C4E9220004F19000C4E924001DB3A1
:10CE14002879002840F2011008BF0120C4F89800C6
:10CE240000204FF0FF364FF0FF37CDE90330CDE956
:10CE34000100CDE906672046084B0094FFF71EFD6C
:10CE440025B1296811B1204602F0CBFB204609B078
:10CE5400BDE8F04002F0C8BB0120DFE7FDCB0000D5
:10CE6400C3897F2B12D80A4B1B6863B1094B90F915
:10CE74000E201B689A4209DB437BDB0606D1064B76
:10CE8400C31A18BF012303F0010070470023FAE717
:10CE9400E8CE0020E4CE0020F0C600200122044B9E
:10CEA400C01A044BC0105843034B1A54704700BFB8
:10CEB400F0C70020ABAAAAAA17D8002070B50E4B61
:10CEC4000E4C1E7C054606EB460304EBC3042046C9
:10CED40002F049FD00220A4B28469A55FFF7C0FF8D
:10CEE40048B1084B2046BDE870401A680649013A2B
:10CEF400D31700F069BB70BDB8CE0020F0C7002086
:10CF040017D80020E8CE0020A1CE000038B50D4D82
:10CF14002B4653F8184F9C4200D004B9EC68AB6818
:10CF240038B95A7BD20604D1A26912B9DA897F2AA8
:10CF340005D89C4202D02046FFF7C0FF23466B6110
:10CF440038BD00BFB8CE002070B590F90D20014661
:10CF5400002A437B04DA03F07F03437302F016FCD8
:10CF6400154A4B7B104663F07F034B7350F8183F10
:10CF7400D469834208BF002323B9C1E900042160B6
:10CF8400D1610CE091F90E5093F90E60B5420ED0C8
:10CF9400AE420CDD5868C1E9003001605960906808
:10CFA400BDE87040431A58425841FFF7AFBF9C4256
:10CFB400E3D01B68E0E700BFB8CE002070B490F95E
:10CFC4000D30427B002B29DBD30627D183692BBB91
:10CFD400134962F07F0242730A4652F8184F944292
:10CFE40018BF2346CC6923B9C0E900242060C86176
:10CFF4000CE090F90E5093F90E60B5420AD0AE429F
:10D0040008DD5A68C0E9003210605860002070BC26
:10D01400FFF77CBFA342E7D01B68E4E770BC70470E
:10D02400B8CE002008B590F90D200146002A437BB4
:10D0340004DA03F07F03437302F0A8FB044B9868FF
:10D04400431A58425841BDE80840FFF75FBF00BF8C
:10D05400B8CE002070B515461C46064602F0A8FB63
:10D06400B4F1FF3F08BFB5F1FF3F08D02A4623467D
:10D0740006F118000249BDE8704000F0A5BA70BD81
:10D0840069F8000038B54FF02003EFF3118583F3FE
:10D094001288BFF36F8F104B104A9C681068A0422F
:10D0A40006D1FFF70BFF85F31188BFF36F8F38BDEF
:10D0B40000211B7C11600A4AD35C002BF3D020466C
:10D0C400FFF7CEFE0028EED0637BDB0602D12046BC
:10D0D400FFF73AFF2046E4E7B8CE0020E0CE002078
:10D0E40017D8002070B50C480C4D86680C462E608D
:10D0F4001146DDE904234FF02006EFF3118586F392
:10D104001288BFF36F8F8068FFF7A4FF2046BDE845
:10D114007040FBF7D7BC00BFB8CE0020E0CE0020A3
:10D12400F8B504464FF02003EFF3118683F3128819
:10D13400BFF36F8F437B49B2DA0619D18569BDB954
:10D1440003F07F03437302F021FB437B164A63F031
:10D154007F0343731346817353F8180F984218BF23
:10D164000546D0695DB9C4E900300460D46111E0BA
:10D174000020A17386F31188BFF36F8FF8BD95F972
:10D184000E70B9420BD08F4209DD6B68C4E90053BD
:10D194001C606C600120FFF7B9FE0120EAE7A84299
:10D1A400E1D02D68DEE700BFB8CE002049B9EFF327
:10D1B400058030B9054B5A699B689A4201D0FBF748
:10D1C40081BC81F31188BFF36F8F7047B8CE002004
:10D1D40010B54FF02002EFF3118482F31288BFF3ED
:10D1E4006F8F427B510704D484F31188BFF36F8F90
:10D1F40010BD22F004024273FFF7E0FE2146BDE8B1
:10D2040010400148FFF7D2BF18D8002070B504467B
:10D21400183002F0A8FB4FF02003EFF3118683F3DC
:10D224001288BFF36F8F94F90D20637B002A05DA0F
:10D2340003F07F032046637302F0A8FA0B4D637B6F
:10D24400A86843F010036373031B58425841FFF767
:10D254005DFE86F31188BFF36F8FAB68A34203D1E1
:10D26400BDE8704002F042BB70BD00BFB8CE0020E4
:10D274004FF02003EFF3118183F31288BFF36F8F14
:10D28400044B9A68D37B013BD37381F31188BFF3BA
:10D294006F8F7047B8CE002010B54FF02003EFF326
:10D2A400118483F31288BFF36F8F084B00209A68B0
:10D2B400D37B0133D373FFF729FE84F31188BFF3C3
:10D2C4006F8FBDE8104002F011BB00BFB8CE002044
:10D2D400024B03F11802C3E906227047B8CE0020BE
:10D2E400F8B54FF02003EFF3118583F31288BFF3F1
:10D2F4006F8F19498868437B03F07F03437302F0FF
:10D3040045FA08468B685A7B62F07F025A7350F8DC
:10D31400182FCC69824208BF002222B9C3E9000455
:10D324002360CB610CE093F90E6092F90E70BE425B
:10D334000ED0B7420CDD5168C3E900210B60536085
:10D344000120FFF7E3FD2846BDE8F840FBF7BABB30
:10D35400A242E3D01268E0E7B8CE002050EA01030D
:10D364002DE9F04105460E4603D1FFF7B9FF002031
:10D374002CE0831C71F1FF332ADB02F00AFB2C182A
:10D384004FF02003EFF3118883F31288BFF36F8FFC
:10D39400114F124BB8681860FFF744FEB868104983
:10D3A4002A463346183000F00FF9BA684046537BDA
:10D3B40043F010035373FBF785FB02F0EAFA201ADB
:10D3C40063EB0303012873F10003D0DBBDE8F081B4
:10D3D4006FF00104241AD3E7B8CE0020E0CE002079
:10D3E40069F80000B1F1FF3F08BFB0F1FF3F08B595
:10D3F40006D1084B9868FFF709FF4FF0FF3008BDCE
:10D40400FFF7ACFF4FF4FA6380FB0303C00B40EA61
:10D414004340F4E7B8CE0020014B9868704700BF42
:10D42400B8CE00202DE9F04104464FF02003EFF37D
:10D43400118683F31288BFF36F8F037BD9070BD553
:10D4440086F31188BFF36F8F404080F311884FF04B
:10D45400040002DFBDE8F081437B1A0704D586F39C
:10D464001188BFF36F8FF5E723F0200242F0080123
:10D47400D20920D14173A36813B1204602F08EF97A
:10D4840004F1180002F06FFA4FF0000804F1580795
:10D49400A56DBD4200D0B5B90120FFF737FD104B93
:10D4A4009B68A342DBD1EFF30583002BD7D1304631
:10D4B400FBF708FBD3E703F05F0343F00803437370
:10D4C40002F064F9D7E7284602F068F905F118007C
:10D4D40002F049FA2846C5F87880FFF76FFDD7E7D0
:10D4E400B8CE0020D3B5DDE90667089CCDE9006716
:10D4F400FFF7F8FD1CB1034B9B685B69236002B026
:10D50400D0BD00BFB8CE002008B50648064A07497A
:10D51400121A01F0ECFFBDE80840054A0549064827
:10D5240001F0E5BF80C50020D0C600205C080100E2
:10D53400000000004408010080C50020034B1B6864
:10D544000BB9FCF77BBE0020704700BFECCE002077
:10D5540010B50E4B1C689C4204D1FFF7EFFF6FF02F
:10D56400004010BDFFF7EAFF002CF8D0D4E90432E4
:10D574001B1A62EBE072B3F1004F72F10001EEDAB4
:10D58400002AACBF18460020EBE700BF4CC60020C1
:10D5940030B570B10B4B5B6898420AD0036843B155
:10D5A400D3E90421D0E90445121941EB0501C3E98B
:10D5B4000421D0E9003213605A600023C0E900332B
:10D5C40030BD00BF4CC60020B3F1FF3F08BFB2F12D
:10D5D400FF3FF8B504461D4616465CD081604FF007
:10D5E4002003EFF3118783F31288BFF36F8F0132A7
:10D5F40075F1FF3324DA6FF001032C49D1E90020DF
:10D604009B1A4FF0FF3262EB00009E1B60EB05009B
:10D61400012E70F1000301DA01260020C4E9046040
:10D62400234ED6F800C07568B44508BF4FF0000C0F
:10D63400BCF1000F0DD1C4E900652C6074601CE0DE
:10D64400FFF77CFF013645F10005361845EBE07025
:10D65400E4E7DCE90420D4E90431934271EB000EE1
:10D664001ADAD21ADCF8043060EB0100CCE90420A9
:10D67400C4E900C31C60CCF804403368B34206D04C
:10D684009C4204D1FFF764FF0021FCF7A5FD87F35A
:10D694001188BFF36F8FF8BD9B1A61EB0001AC4595
:10D6A400C4E90431C7D0DCF800C0C1E708C80020D1
:10D6B4004CC600202DE9F84F4FF02003EFF3118CF6
:10D6C40083F31288BFF36F8FDFF8B0A0DFF8B09058
:10D6D4000024C9F80000DAF800000025504508BF0E
:10D6E4000020284FE046D7E90021D9F8003080B364
:10D6F400D0E9046C4FEAE37EB3427EEB0C0B05DA0F
:10D70400F61A6CEB0E04C0E9046422E0B21841EB93
:10D71400E671C0E90445C7E90021FFF739FF88F342
:10D724001188BFF36F8F836898474FF02003EFF39E
:10D73400118883F31288BFF36F8FD9F80030DAF8B9
:10D7440000009B1B5045C446C9F80030CAD1D7E934
:10D75400002100249A1841EBE373C7E90023C9F8B8
:10D764000040FFF7F5FE2146FCF736FD88F31188EB
:10D77400BFF36F8FBDE8F84FFFF784BC4CC60020A1
:10D78400ECCE002008C8002010B54FF02003EFF3C2
:10D79400118483F31288BFF36F8FFFF7CFFE034624
:10D7A400054AD2E90001181841EBE37184F31188AA
:10D7B400BFF36F8F10BD00BF08C80020014BC366C4
:10D7C400704700BF74C6002038B504460D4601F00A
:10D7D40002FF20B9064B9B68DB6E0BB938BD054BC5
:10D7E4002A4621461846BDE8384002F01DB900BF5C
:10D7F400B8CE002074C60020014800F00DBD00BF63
:10D80400EE0701001FB50024084B4FF48062029319
:10D8140002AB009306494FF0FF3306488DF80C40E5
:10D82400FFF7E6FA204604B010BD00BF1608010059
:10D8340058E8002010C80020242A2DE9F0410446AD
:10D8440001D8012A48D1334B162202F009FA1A50A2
:10D8540001B10C6000252846BDE8F0810546284644
:10D8640010F8013BA3F10906042EF7D9202BF5D0BB
:10D874002B2B33D02D2B35D00026302B38D10578E7
:10D8840045F02005782D2FD132F010052CD14378A6
:10D8940004461022023006F100470025013FB7FB81
:10D8A400F2FE02FB1E78392B82BF03F1FF3343F0F3
:10D8B4002003263B303B9A421ED9754502DC03D136
:10D8C400984501D246F00206844605FB023504461B
:10D8D4001CF8013B6046E6E70546C0E70026A81CA5
:10D8E4006B78CAE70126FAE7002A08BF0822D2E7C4
:10D8F400002A08BF0A22CEE701B10C60F20748BF34
:10D904006D42B307A7D5034B222202F0A9F93D4685
:10D914001A50A0E70C0000002DE9F04F43688BB0CB
:10D9240082461446019383789F0740F109810025BC
:10D9340091F80080B8F1000F00F00481B8F1250FD0
:10D944000BD04B1C0293013551464046019B98472E
:10D954000028C0F2F5800299EAE791F801808B1C57
:10D96400B8F1250F0293EED0002399461F461F2FCE
:10D9740039D8A8F12002102A0AD8DFE802F02B09CE
:10D9840009310909092109090929092E09091F0071
:10D99400A8F13002092A32D9B8F12A0F35D1780614
:10D9A40054F8042B00F18180002AA7BF47F0200718
:10D9B4009146C2F1000947F0280701E047F001074A
:10D9C400029A12F8018B0292B8F1000FCFD132E023
:10D9D40047F0020747F00407F2E747F00807EFE7CC
:10D9E40047F01007ECE77F2F18D8A8F13002092A76
:10D9F400D2D87E0603D50A2101FB0323E0E70A21DE
:10DA040047F0200701FB0929DAE7B8F12E0F05D109
:10DA1400790600F1978047F04007D1E7B8F16C0F21
:10DA240032D02AD8B8F1680F35D0B8F16A0F39D09E
:10DA3400B8F14C0F36D0002B48F02002B8BF27F0C5
:10DA44004007A2F16501BCBF0023BFB2022901D97E
:10DA5400612A2CD107344FF007089A4E24F00704AA
:10DA64000834380763D506EB080B37465F4560D1A9
:10DA7400AE1BA9EB0809374454E1B8F1740F9FD0E9
:10DA8400B8F17A0F9CD0D6E73A0648BF47F400773E
:10DA940047F0800794E7FE0548BF47F4007747F452
:10DAA40080778DE747F420778AE7134688E7A8F163
:10DAB4006301122900F2CF80DFE811F0130048005F
:10DAC400CD00CD00CD00CD004800CD00CD00CD006F
:10DAD400CD00CD00DF00C700CD00CD001B00CD0080
